{
  "_format": "hh-sol-artifact-1",
  "contractName": "TrustFactory",
  "sourceName": "contracts/TrustFactory.sol",
  "abi": [
    {
      "anonymous": false,
      "inputs": [
        {
          "indexed": false,
          "internalType": "address",
          "name": "trustAddress",
          "type": "address"
        },
        {
          "indexed": false,
          "internalType": "address",
          "name": "owner",
          "type": "address"
        },
        {
          "indexed": false,
          "internalType": "address",
          "name": "beneficiary",
          "type": "address"
        },
        {
          "indexed": false,
          "internalType": "uint256",
          "name": "unlockTime",
          "type": "uint256"
        },
        {
          "indexed": false,
          "internalType": "uint256",
          "name": "checkInFreq",
          "type": "uint256"
        }
      ],
      "name": "TrustCreated",
      "type": "event"
    },
    {
      "inputs": [
        {
          "internalType": "address",
          "name": "_beneficiary",
          "type": "address"
        },
        {
          "internalType": "uint256",
          "name": "_unlockTime",
          "type": "uint256"
        }
      ],
      "name": "createBasicTrust",
      "outputs": [],
      "stateMutability": "payable",
      "type": "function"
    },
    {
      "inputs": [
        {
          "internalType": "address",
          "name": "_beneficiary",
          "type": "address"
        },
        {
          "internalType": "uint256",
          "name": "_unlockTime",
          "type": "uint256"
        }
      ],
      "name": "createRevokableTrust",
      "outputs": [],
      "stateMutability": "payable",
      "type": "function"
    },
    {
      "inputs": [
        {
          "internalType": "address",
          "name": "_beneficiary",
          "type": "address"
        },
        {
          "internalType": "uint256",
          "name": "_checkInFreq",
          "type": "uint256"
        }
      ],
      "name": "createTontineTrust",
      "outputs": [],
      "stateMutability": "payable",
      "type": "function"
    }
  ],
  "bytecode": "0x608060405234801561001057600080fd5b50612df0806100206000396000f3fe608060405260043610620000385760003560e01c806346c807f8146200003d57806380c101fe146200005d578063d160f23d146200007d575b600080fd5b6200005b600480360381019062000055919062000304565b6200009d565b005b6200007b600480360381019062000075919062000304565b62000125565b005b6200009b600480360381019062000095919062000304565b620001ad565b005b6000348383604051620000b09062000235565b620000bd9291906200036d565b6040518091039082f0905080158015620000db573d6000803e3d6000fd5b5090507fb7e5c16ce03de668af5f65970db47873785e914161a9951665ec6a44182f9c8c81338560008660405162000118959493929190620003e7565b60405180910390a1505050565b6000348284604051620001389062000243565b6200014592919062000444565b6040518091039082f090508015801562000163573d6000803e3d6000fd5b5090507fb7e5c16ce03de668af5f65970db47873785e914161a9951665ec6a44182f9c8c813385856000604051620001a095949392919062000471565b60405180910390a1505050565b6000348284604051620001c09062000251565b620001cd92919062000444565b6040518091039082f0905080158015620001eb573d6000803e3d6000fd5b5090507fb7e5c16ce03de668af5f65970db47873785e914161a9951665ec6a44182f9c8c8133858560006040516200022895949392919062000471565b60405180910390a1505050565b610ddc80620004cf83390190565b610d5480620012ab83390190565b610dbc8062001fff83390190565b600080fd5b600073ffffffffffffffffffffffffffffffffffffffff82169050919050565b6000620002918262000264565b9050919050565b620002a38162000284565b8114620002af57600080fd5b50565b600081359050620002c38162000298565b92915050565b6000819050919050565b620002de81620002c9565b8114620002ea57600080fd5b50565b600081359050620002fe81620002d3565b92915050565b600080604083850312156200031e576200031d6200025f565b5b60006200032e85828601620002b2565b92505060206200034185828601620002ed565b9150509250929050565b620003568162000284565b82525050565b6200036781620002c9565b82525050565b60006040820190506200038460008301856200034b565b6200039360208301846200035c565b9392505050565b6000819050919050565b6000819050919050565b6000620003cf620003c9620003c3846200039a565b620003a4565b620002c9565b9050919050565b620003e181620003ae565b82525050565b600060a082019050620003fe60008301886200034b565b6200040d60208301876200034b565b6200041c60408301866200034b565b6200042b6060830185620003d6565b6200043a60808301846200035c565b9695505050505050565b60006040820190506200045b60008301856200035c565b6200046a60208301846200034b565b9392505050565b600060a0820190506200048860008301886200034b565b6200049760208301876200034b565b620004a660408301866200034b565b620004b560608301856200035c565b620004c46080830184620003d6565b969550505050505056fe608060405260405162000ddc38038062000ddc833981810160405281019062000029919062000211565b620000496200003d620000a060201b60201c565b620000a860201b60201c565b81600160006101000a81548173ffffffffffffffffffffffffffffffffffffffff021916908373ffffffffffffffffffffffffffffffffffffffff1602179055508060028190555042600381905550505062000258565b600033905090565b60008060009054906101000a900473ffffffffffffffffffffffffffffffffffffffff169050816000806101000a81548173ffffffffffffffffffffffffffffffffffffffff021916908373ffffffffffffffffffffffffffffffffffffffff1602179055508173ffffffffffffffffffffffffffffffffffffffff168173ffffffffffffffffffffffffffffffffffffffff167f8be0079c531659141344cd1fd0a4f28419497f9722a3daafe3b4186f6b6457e060405160405180910390a35050565b600080fd5b600073ffffffffffffffffffffffffffffffffffffffff82169050919050565b60006200019e8262000171565b9050919050565b620001b08162000191565b8114620001bc57600080fd5b50565b600081519050620001d081620001a5565b92915050565b6000819050919050565b620001eb81620001d6565b8114620001f757600080fd5b50565b6000815190506200020b81620001e0565b92915050565b600080604083850312156200022b576200022a6200016c565b5b60006200023b85828601620001bf565b92505060206200024e85828601620001fa565b9150509250929050565b610b7480620002686000396000f3fe60806040526004361061007f5760003560e01c8063715018a61161004e578063715018a6146101175780638da5cb5b1461012e578063db78dabd14610159578063f2fde38b146101845761008e565b806307d4d9d014610093578063183ff085146100be57806338af3eed146100d55780633ccfd60b146101005761008e565b3661008e5761008c6101ad565b005b600080fd5b34801561009f57600080fd5b506100a861022b565b6040516100b59190610662565b60405180910390f35b3480156100ca57600080fd5b506100d3610231565b005b3480156100e157600080fd5b506100ea610294565b6040516100f791906106be565b60405180910390f35b34801561010c57600080fd5b506101156102ba565b005b34801561012357600080fd5b5061012c6104b7565b005b34801561013a57600080fd5b506101436104cb565b60405161015091906106be565b60405180910390f35b34801561016557600080fd5b5061016e6104f4565b60405161017b9190610662565b60405180910390f35b34801561019057600080fd5b506101ab60048036038101906101a6919061070a565b6104fa565b005b6101b561057d565b73ffffffffffffffffffffffffffffffffffffffff166101d36104cb565b73ffffffffffffffffffffffffffffffffffffffff1614610229576040517f08c379a000000000000000000000000000000000000000000000000000000000815260040161022090610794565b60405180910390fd5b565b60025481565b6102396101ad565b6002546003544261024a91906107e3565b101561028b576040517f08c379a000000000000000000000000000000000000000000000000000000000815260040161028290610863565b60405180910390fd5b42600381905550565b600160009054906101000a900473ffffffffffffffffffffffffffffffffffffffff1681565b600160009054906101000a900473ffffffffffffffffffffffffffffffffffffffff1673ffffffffffffffffffffffffffffffffffffffff163373ffffffffffffffffffffffffffffffffffffffff161461034a576040517f08c379a0000000000000000000000000000000000000000000000000000000008152600401610341906108cf565b60405180910390fd5b426002805461035991906108ef565b6003546103669190610931565b11156103a7576040517f08c379a000000000000000000000000000000000000000000000000000000000815260040161039e906109b1565b60405180910390fd5b60004790506000600160009054906101000a900473ffffffffffffffffffffffffffffffffffffffff1673ffffffffffffffffffffffffffffffffffffffff16826040516103f490610a02565b60006040518083038185875af1925050503d8060008114610431576040519150601f19603f3d011682016040523d82523d6000602084013e610436565b606091505b505090508061047a576040517f08c379a000000000000000000000000000000000000000000000000000000000815260040161047190610a63565b60405180910390fd5b7fbf2ed60bd5b5965d685680c01195c9514e4382e28e3a5a2d2d5244bf59411b9382426040516104ab929190610a83565b60405180910390a15050565b6104bf6101ad565b6104c96000610585565b565b60008060009054906101000a900473ffffffffffffffffffffffffffffffffffffffff16905090565b60035481565b6105026101ad565b600073ffffffffffffffffffffffffffffffffffffffff168173ffffffffffffffffffffffffffffffffffffffff1603610571576040517f08c379a000000000000000000000000000000000000000000000000000000000815260040161056890610b1e565b60405180910390fd5b61057a81610585565b50565b600033905090565b60008060009054906101000a900473ffffffffffffffffffffffffffffffffffffffff169050816000806101000a81548173ffffffffffffffffffffffffffffffffffffffff021916908373ffffffffffffffffffffffffffffffffffffffff1602179055508173ffffffffffffffffffffffffffffffffffffffff168173ffffffffffffffffffffffffffffffffffffffff167f8be0079c531659141344cd1fd0a4f28419497f9722a3daafe3b4186f6b6457e060405160405180910390a35050565b6000819050919050565b61065c81610649565b82525050565b60006020820190506106776000830184610653565b92915050565b600073ffffffffffffffffffffffffffffffffffffffff82169050919050565b60006106a88261067d565b9050919050565b6106b88161069d565b82525050565b60006020820190506106d360008301846106af565b92915050565b600080fd5b6106e78161069d565b81146106f257600080fd5b50565b600081359050610704816106de565b92915050565b6000602082840312156107205761071f6106d9565b5b600061072e848285016106f5565b91505092915050565b600082825260208201905092915050565b7f4f776e61626c653a2063616c6c6572206973206e6f7420746865206f776e6572600082015250565b600061077e602083610737565b915061078982610748565b602082019050919050565b600060208201905081810360008301526107ad81610771565b9050919050565b7f4e487b7100000000000000000000000000000000000000000000000000000000600052601160045260246000fd5b60006107ee82610649565b91506107f983610649565b9250828203905081811115610811576108106107b4565b5b92915050565b7f596f752063616e277420636865636b20696e2079657400000000000000000000600082015250565b600061084d601683610737565b915061085882610817565b602082019050919050565b6000602082019050818103600083015261087c81610840565b9050919050565b7f596f75206172656e2774207468652062656e6566696369617279000000000000600082015250565b60006108b9601a83610737565b91506108c482610883565b602082019050919050565b600060208201905081810360008301526108e8816108ac565b9050919050565b60006108fa82610649565b915061090583610649565b925082820261091381610649565b9150828204841483151761092a576109296107b4565b5b5092915050565b600061093c82610649565b915061094783610649565b925082820190508082111561095f5761095e6107b4565b5b92915050565b7f4f776e6572206c69766573000000000000000000000000000000000000000000600082015250565b600061099b600b83610737565b91506109a682610965565b602082019050919050565b600060208201905081810360008301526109ca8161098e565b9050919050565b600081905092915050565b50565b60006109ec6000836109d1565b91506109f7826109dc565b600082019050919050565b6000610a0d826109df565b9150819050919050565b7f4661696c656420746f2073656e64204574686572000000000000000000000000600082015250565b6000610a4d601483610737565b9150610a5882610a17565b602082019050919050565b60006020820190508181036000830152610a7c81610a40565b9050919050565b6000604082019050610a986000830185610653565b610aa56020830184610653565b9392505050565b7f4f776e61626c653a206e6577206f776e657220697320746865207a65726f206160008201527f6464726573730000000000000000000000000000000000000000000000000000602082015250565b6000610b08602683610737565b9150610b1382610aac565b604082019050919050565b60006020820190508181036000830152610b3781610afb565b905091905056fea2646970667358221220356e7c8d3d61850f927724c8c6e8146ca4d4b97960e6be8ead1b05c9c67405de64736f6c63430008110033608060405260405162000d5438038062000d5483398181016040528101906200002991906200036f565b620000496200003d620000ae60201b60201c565b620000b660201b60201c565b8142106200008e576040517f08c379a000000000000000000000000000000000000000000000000000000000815260040162000085906200043d565b60405180910390fd5b81600181905550620000a6816200017a60201b60201c565b505062000569565b600033905090565b60008060009054906101000a900473ffffffffffffffffffffffffffffffffffffffff169050816000806101000a81548173ffffffffffffffffffffffffffffffffffffffff021916908373ffffffffffffffffffffffffffffffffffffffff1602179055508173ffffffffffffffffffffffffffffffffffffffff168173ffffffffffffffffffffffffffffffffffffffff167f8be0079c531659141344cd1fd0a4f28419497f9722a3daafe3b4186f6b6457e060405160405180910390a35050565b6200018a6200021060201b60201c565b600073ffffffffffffffffffffffffffffffffffffffff168173ffffffffffffffffffffffffffffffffffffffff1603620001fc576040517f08c379a0000000000000000000000000000000000000000000000000000000008152600401620001f390620004d5565b60405180910390fd5b6200020d81620000b660201b60201c565b50565b62000220620000ae60201b60201c565b73ffffffffffffffffffffffffffffffffffffffff1662000246620002a160201b60201c565b73ffffffffffffffffffffffffffffffffffffffff16146200029f576040517f08c379a0000000000000000000000000000000000000000000000000000000008152600401620002969062000547565b60405180910390fd5b565b60008060009054906101000a900473ffffffffffffffffffffffffffffffffffffffff16905090565b600080fd5b6000819050919050565b620002e481620002cf565b8114620002f057600080fd5b50565b6000815190506200030481620002d9565b92915050565b600073ffffffffffffffffffffffffffffffffffffffff82169050919050565b600062000337826200030a565b9050919050565b62000349816200032a565b81146200035557600080fd5b50565b60008151905062000369816200033e565b92915050565b60008060408385031215620003895762000388620002ca565b5b60006200039985828601620002f3565b9250506020620003ac8582860162000358565b9150509250929050565b600082825260208201905092915050565b7f556e6c6f636b2074696d652073686f756c6420626520696e207468652066757460008201527f7572650000000000000000000000000000000000000000000000000000000000602082015250565b600062000425602383620003b6565b91506200043282620003c7565b604082019050919050565b60006020820190508181036000830152620004588162000416565b9050919050565b7f4f776e61626c653a206e6577206f776e657220697320746865207a65726f206160008201527f6464726573730000000000000000000000000000000000000000000000000000602082015250565b6000620004bd602683620003b6565b9150620004ca826200045f565b604082019050919050565b60006020820190508181036000830152620004f081620004ae565b9050919050565b7f4f776e61626c653a2063616c6c6572206973206e6f7420746865206f776e6572600082015250565b60006200052f602083620003b6565b91506200053c82620004f7565b602082019050919050565b60006020820190508181036000830152620005628162000520565b9050919050565b6107db80620005796000396000f3fe60806040526004361061004e5760003560e01c8063251c1aa3146100625780633ccfd60b1461008d578063715018a6146100a45780638da5cb5b146100bb578063f2fde38b146100e65761005d565b3661005d5761005b61010f565b005b600080fd5b34801561006e57600080fd5b5061007761018d565b604051610084919061047a565b60405180910390f35b34801561009957600080fd5b506100a2610193565b005b3480156100b057600080fd5b506100b96102d5565b005b3480156100c757600080fd5b506100d06102e9565b6040516100dd91906104d6565b60405180910390f35b3480156100f257600080fd5b5061010d60048036038101906101089190610522565b610312565b005b610117610395565b73ffffffffffffffffffffffffffffffffffffffff166101356102e9565b73ffffffffffffffffffffffffffffffffffffffff161461018b576040517f08c379a0000000000000000000000000000000000000000000000000000000008152600401610182906105ac565b60405180910390fd5b565b60015481565b61019b61010f565b6001544210156101e0576040517f08c379a00000000000000000000000000000000000000000000000000000000081526004016101d790610618565b60405180910390fd5b600047905060006101ef6102e9565b73ffffffffffffffffffffffffffffffffffffffff168260405161021290610669565b60006040518083038185875af1925050503d806000811461024f576040519150601f19603f3d011682016040523d82523d6000602084013e610254565b606091505b5050905080610298576040517f08c379a000000000000000000000000000000000000000000000000000000000815260040161028f906106ca565b60405180910390fd5b7fbf2ed60bd5b5965d685680c01195c9514e4382e28e3a5a2d2d5244bf59411b9382426040516102c99291906106ea565b60405180910390a15050565b6102dd61010f565b6102e7600061039d565b565b60008060009054906101000a900473ffffffffffffffffffffffffffffffffffffffff16905090565b61031a61010f565b600073ffffffffffffffffffffffffffffffffffffffff168173ffffffffffffffffffffffffffffffffffffffff1603610389576040517f08c379a000000000000000000000000000000000000000000000000000000000815260040161038090610785565b60405180910390fd5b6103928161039d565b50565b600033905090565b60008060009054906101000a900473ffffffffffffffffffffffffffffffffffffffff169050816000806101000a81548173ffffffffffffffffffffffffffffffffffffffff021916908373ffffffffffffffffffffffffffffffffffffffff1602179055508173ffffffffffffffffffffffffffffffffffffffff168173ffffffffffffffffffffffffffffffffffffffff167f8be0079c531659141344cd1fd0a4f28419497f9722a3daafe3b4186f6b6457e060405160405180910390a35050565b6000819050919050565b61047481610461565b82525050565b600060208201905061048f600083018461046b565b92915050565b600073ffffffffffffffffffffffffffffffffffffffff82169050919050565b60006104c082610495565b9050919050565b6104d0816104b5565b82525050565b60006020820190506104eb60008301846104c7565b92915050565b600080fd5b6104ff816104b5565b811461050a57600080fd5b50565b60008135905061051c816104f6565b92915050565b600060208284031215610538576105376104f1565b5b60006105468482850161050d565b91505092915050565b600082825260208201905092915050565b7f4f776e61626c653a2063616c6c6572206973206e6f7420746865206f776e6572600082015250565b600061059660208361054f565b91506105a182610560565b602082019050919050565b600060208201905081810360008301526105c581610589565b9050919050565b7f596f752063616e27742077697468647261772079657400000000000000000000600082015250565b600061060260168361054f565b915061060d826105cc565b602082019050919050565b60006020820190508181036000830152610631816105f5565b9050919050565b600081905092915050565b50565b6000610653600083610638565b915061065e82610643565b600082019050919050565b600061067482610646565b9150819050919050565b7f4661696c656420746f2073656e64204574686572000000000000000000000000600082015250565b60006106b460148361054f565b91506106bf8261067e565b602082019050919050565b600060208201905081810360008301526106e3816106a7565b9050919050565b60006040820190506106ff600083018561046b565b61070c602083018461046b565b9392505050565b7f4f776e61626c653a206e6577206f776e657220697320746865207a65726f206160008201527f6464726573730000000000000000000000000000000000000000000000000000602082015250565b600061076f60268361054f565b915061077a82610713565b604082019050919050565b6000602082019050818103600083015261079e81610762565b905091905056fea264697066735822122099db647f23a72fac597109e5c5e9427193e8922e5c26c204501e5e0e9f8766e964736f6c63430008110033608060405260405162000dbc38038062000dbc83398181016040528101906200002991906200024f565b620000496200003d620000de60201b60201c565b620000e660201b60201c565b8142106200008e576040517f08c379a000000000000000000000000000000000000000000000000000000000815260040162000085906200031d565b60405180910390fd5b8160018190555080600260006101000a81548173ffffffffffffffffffffffffffffffffffffffff021916908373ffffffffffffffffffffffffffffffffffffffff16021790555050506200033f565b600033905090565b60008060009054906101000a900473ffffffffffffffffffffffffffffffffffffffff169050816000806101000a81548173ffffffffffffffffffffffffffffffffffffffff021916908373ffffffffffffffffffffffffffffffffffffffff1602179055508173ffffffffffffffffffffffffffffffffffffffff168173ffffffffffffffffffffffffffffffffffffffff167f8be0079c531659141344cd1fd0a4f28419497f9722a3daafe3b4186f6b6457e060405160405180910390a35050565b600080fd5b6000819050919050565b620001c481620001af565b8114620001d057600080fd5b50565b600081519050620001e481620001b9565b92915050565b600073ffffffffffffffffffffffffffffffffffffffff82169050919050565b60006200021782620001ea565b9050919050565b62000229816200020a565b81146200023557600080fd5b50565b60008151905062000249816200021e565b92915050565b60008060408385031215620002695762000268620001aa565b5b60006200027985828601620001d3565b92505060206200028c8582860162000238565b9150509250929050565b600082825260208201905092915050565b7f556e6c6f636b2074696d652073686f756c6420626520696e207468652066757460008201527f7572650000000000000000000000000000000000000000000000000000000000602082015250565b60006200030560238362000296565b91506200031282620002a7565b604082019050919050565b600060208201905081810360008301526200033881620002f6565b9050919050565b610a6d806200034f6000396000f3fe6080604052600436106100745760003560e01c8063715018a61161004e578063715018a6146100f55780638da5cb5b1461010c578063b6549f7514610137578063f2fde38b1461014e57610083565b8063251c1aa31461008857806338af3eed146100b35780633ccfd60b146100de57610083565b3661008357610081610177565b005b600080fd5b34801561009457600080fd5b5061009d6101f5565b6040516100aa91906106a0565b60405180910390f35b3480156100bf57600080fd5b506100c86101fb565b6040516100d591906106fc565b60405180910390f35b3480156100ea57600080fd5b506100f3610221565b005b34801561010157600080fd5b5061010a610406565b005b34801561011857600080fd5b5061012161041a565b60405161012e91906106fc565b60405180910390f35b34801561014357600080fd5b5061014c610443565b005b34801561015a57600080fd5b5061017560048036038101906101709190610748565b610538565b005b61017f6105bb565b73ffffffffffffffffffffffffffffffffffffffff1661019d61041a565b73ffffffffffffffffffffffffffffffffffffffff16146101f3576040517f08c379a00000000000000000000000000000000000000000000000000000000081526004016101ea906107d2565b60405180910390fd5b565b60015481565b600260009054906101000a900473ffffffffffffffffffffffffffffffffffffffff1681565b600154421015610266576040517f08c379a000000000000000000000000000000000000000000000000000000000815260040161025d9061083e565b60405180910390fd5b600260009054906101000a900473ffffffffffffffffffffffffffffffffffffffff1673ffffffffffffffffffffffffffffffffffffffff163373ffffffffffffffffffffffffffffffffffffffff16146102f6576040517f08c379a00000000000000000000000000000000000000000000000000000000081526004016102ed906108aa565b60405180910390fd5b60004790506000600260009054906101000a900473ffffffffffffffffffffffffffffffffffffffff1673ffffffffffffffffffffffffffffffffffffffff1682604051610343906108fb565b60006040518083038185875af1925050503d8060008114610380576040519150601f19603f3d011682016040523d82523d6000602084013e610385565b606091505b50509050806103c9576040517f08c379a00000000000000000000000000000000000000000000000000000000081526004016103c09061095c565b60405180910390fd5b7fbf2ed60bd5b5965d685680c01195c9514e4382e28e3a5a2d2d5244bf59411b9382426040516103fa92919061097c565b60405180910390a15050565b61040e610177565b61041860006105c3565b565b60008060009054906101000a900473ffffffffffffffffffffffffffffffffffffffff16905090565b61044b610177565b600061045561041a565b73ffffffffffffffffffffffffffffffffffffffff1647604051610478906108fb565b60006040518083038185875af1925050503d80600081146104b5576040519150601f19603f3d011682016040523d82523d6000602084013e6104ba565b606091505b50509050806104fe576040517f08c379a00000000000000000000000000000000000000000000000000000000081526004016104f59061095c565b60405180910390fd5b7f61e27b0bfd8e18e6b92ec32ce1c28bb698d27bfe93e84c7e94d4db0a3135c7604260405161052d91906106a0565b60405180910390a150565b610540610177565b600073ffffffffffffffffffffffffffffffffffffffff168173ffffffffffffffffffffffffffffffffffffffff16036105af576040517f08c379a00000000000000000000000000000000000000000000000000000000081526004016105a690610a17565b60405180910390fd5b6105b8816105c3565b50565b600033905090565b60008060009054906101000a900473ffffffffffffffffffffffffffffffffffffffff169050816000806101000a81548173ffffffffffffffffffffffffffffffffffffffff021916908373ffffffffffffffffffffffffffffffffffffffff1602179055508173ffffffffffffffffffffffffffffffffffffffff168173ffffffffffffffffffffffffffffffffffffffff167f8be0079c531659141344cd1fd0a4f28419497f9722a3daafe3b4186f6b6457e060405160405180910390a35050565b6000819050919050565b61069a81610687565b82525050565b60006020820190506106b56000830184610691565b92915050565b600073ffffffffffffffffffffffffffffffffffffffff82169050919050565b60006106e6826106bb565b9050919050565b6106f6816106db565b82525050565b600060208201905061071160008301846106ed565b92915050565b600080fd5b610725816106db565b811461073057600080fd5b50565b6000813590506107428161071c565b92915050565b60006020828403121561075e5761075d610717565b5b600061076c84828501610733565b91505092915050565b600082825260208201905092915050565b7f4f776e61626c653a2063616c6c6572206973206e6f7420746865206f776e6572600082015250565b60006107bc602083610775565b91506107c782610786565b602082019050919050565b600060208201905081810360008301526107eb816107af565b9050919050565b7f596f752063616e27742077697468647261772079657400000000000000000000600082015250565b6000610828601683610775565b9150610833826107f2565b602082019050919050565b600060208201905081810360008301526108578161081b565b9050919050565b7f596f75206172656e2774207468652062656e6566696369617279000000000000600082015250565b6000610894601a83610775565b915061089f8261085e565b602082019050919050565b600060208201905081810360008301526108c381610887565b9050919050565b600081905092915050565b50565b60006108e56000836108ca565b91506108f0826108d5565b600082019050919050565b6000610906826108d8565b9150819050919050565b7f4661696c656420746f2073656e64204574686572000000000000000000000000600082015250565b6000610946601483610775565b915061095182610910565b602082019050919050565b6000602082019050818103600083015261097581610939565b9050919050565b60006040820190506109916000830185610691565b61099e6020830184610691565b9392505050565b7f4f776e61626c653a206e6577206f776e657220697320746865207a65726f206160008201527f6464726573730000000000000000000000000000000000000000000000000000602082015250565b6000610a01602683610775565b9150610a0c826109a5565b604082019050919050565b60006020820190508181036000830152610a30816109f4565b905091905056fea2646970667358221220462bbb637854fee1599a03833ecbe3e7fee8aad7407644804fa9db68e99e888764736f6c63430008110033a264697066735822122091fcd67efb4e7a61dd7f4a8bd1a48b189f900b67e4805f6bb139be93e748829564736f6c63430008110033",
  "linkReferences": {},
  "deployedLinkReferences": {}
}